:100000000C942A000C94F10C0C9447000C94250DD0
:100010000C9447000C9447000C9447000C94470044
:100020000C9447000C9447000C9447000C94470034
:100030000C9447000C9447000C9447000C94470024
:100040000C9447000C9447000C9447000C94470014
:100050000C94470011241FBECFE5D8E0DEBFCDBF12
:1000600010E0A0E6B0E0EEE0F0E502C005900D92F1
:10007000A03FB107D9F710E0A0EFB0E001C01D929A
:10008000AE3FB107E1F70E947E270C9405280C943F
:100090000000EF92FF920F931F937B018C0120E0F1
:1000A00030E040E05FE40E94490388238CF0C801FF
:1000B000B70120E030E040E05FE40E94C1010E940F
:1000C000A9039B01AC01205030404040504806C07D
:1000D000C801B7010E94A9039B01AC01B901CA0183
:1000E0001F910F91FF90EF900895A0E0B0E0EBE733
:1000F000F0E00C94CE27DC012B01FA019C919230A8
:1001000008F439C1EB018881823008F433C194309E
:1001100069F4843009F02FC111969C91119789815F
:10012000981709F428C1A9ECB0E025C1843009F47E
:1001300021C18230A9F4923009F01DC19A01AD01AC
:1001400088E0EA010990AE01E90109929E0181501F
:10015000C1F7E201898111969C918923818308C1AD
:10016000923009F407C112962D903C901397EB0141
:100170008A819B811496AD90BD90CD90DC901797AD
:10018000EC80FD800E811F819101281B390BB90184
:1001900037FF04C066277727621B730B6032710537
:1001A0000CF061C0121613066CF537014801062EDB
:1001B00004C096948794779467940A94D2F721E0C8
:1001C00030E040E050E004C0220F331F441F551FB1
:1001D0006A95D2F721503040404050402E213F21B7
:1001E00040235123211531054105510521F021E01E
:1001F00030E040E050E079018A01E628F72808293C
:1002000019293CC0232BD1F1260E371E350146019A
:10021000062E04C096948794779467940A94D2F734
:1002200021E030E040E050E004C0220F331F441FC3
:10023000551F6A95D2F721503040404050402A2146
:100240003B214C215D21211531054105510521F04E
:1002500021E030E040E050E059016A01A628B728CB
:10026000C828D9280BC0821593052CF01C01AA249C
:10027000BB24650103C0EE24FF24870111969C91E5
:10028000D20111968C91981709F445C0992339F041
:10029000A80197012A193B094C095D0906C0A6016E
:1002A00095012E193F09400B510B57FD08C01182D3
:1002B0003382228224833583468357831DC081E0A5
:1002C00081833382228288279927DC01821B930B4A
:1002D000A40BB50B84839583A683B7830DC0220F2F
:1002E000331F441F551F24833583468357838281E0
:1002F000938101979383828324813581468157813D
:10030000DA01C9010197A109B1098F5F9F4FAF4F72
:10031000BF4328F30BC0918333822282EA0CFB1C7B
:100320000C1D1D1DE482F5820683178383E0808304
:10033000248135814681578157FF1AC0C901AA27F8
:1003400097FDA095BA2F81709070A070B0705695EF
:10035000479537952795822B932BA42BB52B848318
:100360009583A683B7838281938101969383828349
:10037000DF0101C0D201CD01CDB7DEB7E2E10C94BF
:10038000EA27A0E2B0E0E7ECF1E00C94DA27698319
:100390007A838B839C832D833E834F835887E9E048
:1003A000EE2EF12CEC0EFD1ECE010196B7010E943F
:1003B000D2048E010F5E1F4FCE010596B8010E9438
:1003C000D2048A8991E089278A8BC701B801AE01DE
:1003D000475E5F4F0E9475000E94FD03A096E6E015
:1003E0000C94F627A0E2B0E0E8EFF1E00C94DA27F5
:1003F00069837A838B839C832D833E834F835887C5
:10040000F9E0EF2EF12CEC0EFD1ECE010196B701A6
:100410000E94D2048E010F5E1F4FCE010596B801D7
:100420000E94D204C701B801AE01475E5F4F0E942F
:1004300075000E94FD03A096E6E00C94F627A0E26A
:10044000B0E0E5E2F2E00C94CE2769837A838B83F7
:100450009C832D833E834F835887CE010196BE0136
:10046000675F7F4F0E94D204CE010596BE016F5E8A
:100470007F4F0E94D2049985923088F0898982301A
:10048000C8F0943019F4823051F404C0843029F457
:10049000923081F489EC90E0C6C0923049F420E0BB
:1004A0009A858A89981321E02A87CE010996BBC0D4
:1004B000823049F420E09A858A89981321E02A8BBA
:1004C000CE014196B0C02D843E844F8458886D88FB
:1004D0007E888F88988CEE24FF248701AA24BB2471
:1004E000650140E050E060E070E0E0E0F0E0C10174
:1004F00081709070892BE9F0E60CF71C081D191D1E
:100500009A01AB012A0D3B1D4C1D5D1D80E090E062
:10051000A0E0B0E0E614F7040805190520F481E036
:1005200090E0A0E0B0E0BA01A901480F591F6A1F8E
:100530007B1FAA0CBB1CCC1CDD1C97FE08C081E0F5
:1005400090E0A0E0B0E0A82AB92ACA2ADB2A3196B6
:10055000E032F10549F0660C771C881C991C569412
:10056000479437942794C3CFFA85EA892B893C892D
:100570008B859C85280F391F2E5F3F4F17C0CA01FE
:1005800081709070892B61F016950795F794E79428
:1005900080E090E0A0E0B0E8E82AF92A0A2B1B2BC3
:1005A00076956795579547952F5F3F4F77FDE7CF36
:1005B0000CC0440F551F661F771F17FD4160EE0CDE
:1005C000FF1C001F111F21503040403090E05907A0
:1005D00090E0690790E4790760F32B8F3C8FDB0193
:1005E000CA018F779070A070B07080349105A1051A
:1005F000B10561F447FD0AC0E114F10401051105DC
:1006000029F0405C5F4F6F4F7F4F40781A8EFE1786
:1006100011F081E08A8F4D8F5E8F6F8F78A383E01A
:10062000898FCE0149960E94FD03A096E2E10C94C9
:10063000EA27A8E1B0E0EFE1F3E00C94DA27698360
:100640007A838B839C832D833E834F83588789E0F5
:10065000E82EF12CEC0EFD1ECE010196B7010E9492
:10066000D2048E010F5E1F4FCE010596B8010E9485
:10067000D2048985823040F08989823028F0C70110
:10068000B8010E944A0501C08FEF6896E6E00C941D
:10069000F627A8E1B0E0EFE4F3E00C94DA276983F1
:1006A0007A838B839C832D833E834F83588789E095
:1006B000E82EF12CEC0EFD1ECE010196B7010E9432
:1006C000D2048E010F5E1F4FCE010596B8010E9425
:1006D000D2048985823040F08989823028F0C701B0
:1006E000B8010E944A0501C08FEF6896E6E00C94BD
:1006F000F627A8E1B0E0EFE7F3E00C94DA2769838E
:100700007A838B839C832D833E834F83588789E034
:10071000E82EF12CEC0EFD1ECE010196B7010E94D1
:10072000D2048E010F5E1F4FCE010596B8010E94C4
:10073000D2048985823040F08989823028F0C7014F
:10074000B8010E944A0501C081E06896E6E00C9479
:10075000F627ACE0B0E0EFEAF3E00C94DE27698323
:100760007A838B839C83CE010196BE016B5F7F4FA2
:100770000E94D2048D81823061F1823050F1843048
:1007800021F48E81882351F12EC02F81388537FDC9
:1007900020C06E812F3131051CF06623F9F023C093
:1007A0008EE190E0821B930B29853A854B855C8511
:1007B00004C056954795379527958A95D2F76623B5
:1007C000B1F050954095309521953F4F4F4F5F4F79
:1007D0000EC020E030E040E050E009C02FEF3FEFD6
:1007E0004FEF5FE704C020E030E040E050E8B9019F
:1007F000CA012C96E2E00C94FA27DF92EF92FF9266
:100800000F931F93FC01E480F58006811781D1804E
:100810008081823048F480E090E0A0E1B0E0E82AF6
:10082000F92A0A2B1B2BA5C0843009F49FC0823003
:1008300021F4EE24FF24870105C0E114F104010531
:10084000110519F4E0E0F0E096C0628173819FEF3A
:10085000623879070CF05BC022E83FEF261B370BAC
:100860002A3131052CF020E030E040E050E02AC091
:10087000B801A701022E04C0769567955795479554
:100880000A94D2F781E090E0A0E0B0E004C0880FC5
:10089000991FAA1FBB1F2A95D2F70197A109B10979
:1008A0008E219F21A023B1230097A105B10521F03E
:1008B00081E090E0A0E0B0E09A01AB01282B392B59
:1008C0004A2B5B2BDA01C9018F779070A070B07052
:1008D00080349105A105B10539F427FF09C0205CDA
:1008E0003F4F4F4F5F4F04C0215C3F4F4F4F5F4F13
:1008F000E0E0F0E02030A0E03A07A0E04A07A0E402
:100900005A0710F0E1E0F0E079018A0127C0603871
:10091000710564F5FB01E158FF4FD801C7018F77DE
:100920009070A070B07080349105A105B10539F4C4
:10093000E7FE0DC080E490E0A0E0B0E004C08FE3EB
:1009400090E0A0E0B0E0E80EF91E0A1F1B1F17FFA1
:1009500005C016950795F794E794319687E01695AC
:100960000795F794E7948A95D1F705C0EE24FF2404
:100970008701EFEFF0E06E2F679566276795902F60
:100980009F77D794DD24D7948E2F8695492F462BB9
:10099000582F5D29B701CA011F910F91FF90EF9069
:1009A000DF900895FC01DB01408151812281622F9B
:1009B0006F7770E0221F2227221F9381892F880FD3
:1009C000822B282F30E0991F9927991F11969C930D
:1009D000119721153105A9F54115510561057105DD
:1009E00011F482E037C082E89FEF13969C938E93B8
:1009F00012979A01AB0167E0220F331F441F551F66
:100A00006A95D1F783E08C930DC0220F331F441FEA
:100A1000551F12968D919C911397019713969C9355
:100A20008E931297203080E0380780E0480780E4FA
:100A3000580758F314962D933D934D935C93179755
:100A400008952F3F310579F4411551056105710570
:100A500019F484E08C93089564FF03C081E08C93C3
:100A600012C01C9210C02F57304013963C932E9307
:100A7000129783E08C9387E0440F551F661F771F02
:100A80008A95D1F7706414964D935D936D937C9322
:100A9000179708951F93DC01FB019C91923008F495
:100AA00047C08081823008F443C0943051F41196DD
:100AB0001C91843099F58181682F70E0611B710968
:100AC0003FC0843021F0923031F48230B9F181811D
:100AD000882389F12DC011961C9111978230F1F075
:100AE00081811817D9F412962D913C911397828128
:100AF00093818217930794F028173907BCF0149656
:100B00008D919D910D90BC91A02D248135814681C0
:100B10005781281739074A075B0718F4112341F05A
:100B20000AC082179307A407B50740F4112319F0F0
:100B300061E070E005C06FEF7FEF02C060E070E041
:100B4000CB011F910895DF93CF93CDB7DEB72F97D9
:100B50000FB6F894DEBF0FBECDBF8F8780E062E096
:100B600040E00E94C60880E063E040E00E94C608C2
:100B700082E06F850E94D60A80E064E041E00E9436
:100B8000C60880E090E0A0E0B0E48B879C87AD874A
:100B9000BE876B857C858D859E8520E030E04AEFA1
:100BA00054E40E941F02DC01CB018F839887A98740
:100BB000BA876F81788589859A8520E030E040E8A2
:100BC0005FE30E94790388232CF481E090E09E8308
:100BD0008D833FC06F81788589859A8520E03FEFBE
:100BE0004FE757E40E94190318164CF56B857C8576
:100BF0008D859E8520E030E040E251E40E941F0296
:100C0000DC01CB01BC01CD010E944900DC01CB011C
:100C10009E838D830FC088EC90E09C838B838B81B7
:100C20009C810197F1F79C838B838D819E81019735
:100C30009E838D838D819E81009769F714C06F819B
:100C4000788589859A850E944900DC01CB019E83C5
:100C50008D838D819E819A83898389819A81019771
:100C6000F1F79A83898380E064E040E00E94C6083F
:100C70002F960FB6F894DEBF0FBECDBFCF91DF9198
:100C80000895DF93CF93CDB7DEB72F970FB6F894C3
:100C9000DEBF0FBECDBF8F8780E062E041E00E94E3
:100CA000C60880E063E040E00E94C60882E06F85ED
:100CB0000E94D60A80E064E041E00E94C60880E01D
:100CC00090E0A0E0B0E48B879C87AD87BE876B8502
:100CD0007C858D859E8520E030E04AEF54E40E94BB
:100CE0001F02DC01CB018F839887A987BA876F81A8
:100CF000788589859A8520E030E040E85FE30E94AE
:100D0000790388232CF481E090E09E838D833FC09B
:100D10006F81788589859A8520E03FEF4FE757E41A
:100D20000E94190318164CF56B857C858D859E8570
:100D300020E030E040E251E40E941F02DC01CB01E0
:100D4000BC01CD010E944900DC01CB019E838D8353
:100D50000FC088EC90E09C838B838B819C810197F2
:100D6000F1F79C838B838D819E8101979E838D8378
:100D70008D819E81009769F714C06F817885898580
:100D80009A850E944900DC01CB019E838D838D8171
:100D90009E819A83898389819A810197F1F79A8349
:100DA000898380E064E040E00E94C6082F960FB679
:100DB000F894DEBF0FBECDBFCF91DF910895DF93D2
:100DC000CF93CDB7DEB72E970FB6F894DEBF0FBE28
:100DD000CDBF80E090E0A0E2B2E48B879C87AD8736
:100DE000BE876B857C858D859E8520E030E04AEF4F
:100DF00054E40E941F02DC01CB018F839887A987EE
:100E0000BA876F81788589859A8520E030E040E84F
:100E10005FE30E94790388232CF481E090E09E83B5
:100E20008D833FC06F81788589859A8520E03FEF6B
:100E30004FE757E40E94190318164CF56B857C8523
:100E40008D859E8520E030E040E251E40E941F0243
:100E5000DC01CB01BC01CD010E944900DC01CB01CA
:100E60009E838D830FC088EC90E09C838B838B8165
:100E70009C810197F1F79C838B838D819E810197E3
:100E80009E838D838D819E81009769F714C06F8149
:100E9000788589859A850E944900DC01CB019E8373
:100EA0008D838D819E819A83898389819A8101971F
:100EB000F1F79A83898388E30E94A3058CE00E945E
:100EC000A30581E00E94A3052E960FB6F894DEBF1D
:100ED0000FBECDBFCF91DF910895DF93CF9300D0A8
:100EE0000F92CDB7DEB79B838A8319820EC08981AA
:100EF000282F30E08A819B81FC01E20FF31F808163
:100F00000E94410689818F5F89838981282F30E083
:100F10008A819B81FC01E20FF31F8081882339F7CE
:100F20000F900F900F90CF91DF910895DF93CF93A3
:100F300000D00F92CDB7DEB78A836B8319828A8186
:100F4000882319F48B81898306C08A81813019F442
:100F50008B81805C8983898180580E94A3050F90D2
:100F60000F900F90CF91DF910895DF93CF93CDB77E
:100F7000DEB727970FB6F894DEBF0FBECDBF9C83B8
:100F80008B836D834E832F831A828D81882F90E00F
:100F9000880F991F880F991F880F991F8A838A814C
:100FA000805C0E94A30519820EC08981282F30E041
:100FB0008B819C81FC01E20FF31F80810E9441061E
:100FC00089818F5F89838981883078F38E816F81F1
:100FD0000E9496078D810E94410627960FB6F894CD
:100FE000DEBF0FBECDBFCF91DF910895DF93CF93CA
:100FF00000D000D0CDB7DEB79C838B831A828B8163
:101000009C818A30910590F18B819C818436910579
:1010100068F51DC08B819C812AE030E0B9010E94F7
:10102000BA2789838A81882F90E0FC01E950FF4F1D
:10103000898180838B819C812AE030E0B9010E9404
:10104000BA27CB019C838B838A818F5F8A838B81B4
:101050009C810097F9F68091F800805D0E9441061E
:101060008091F700805D0E94410689C08B819C8140
:1010700084369105C0F18B819C8123E0883E9207E4
:1010800090F51DC08B819C812AE030E0B9010E945F
:10109000BA2789838A81882F90E0FC01EC50FF4FAA
:1010A000898180838B819C812AE030E0B9010E9494
:1010B000BA27CB019C838B838A818F5F8A838B8144
:1010C0009C810097F9F68091F600805D0E944106B0
:1010D0008091F500805D0E9441068091F400805D62
:1010E0000E9441064CC08B819C8123E0883E920780
:1010F000E8F18B819C8127E280319207B8F51DC011
:101100008B819C812AE030E0B9010E94BA27898353
:101110008A81882F90E0FC01E051FF4F8981808314
:101120008B819C812AE030E0B9010E94BA27CB0173
:101130009C838B838A818F5F8A838B819C810097BC
:10114000F9F68091F300805D0E9441068091F200E3
:10115000805D0E9441068091F100805D0E94410601
:101160008091F000805D0E94410609C08B819C81C6
:101170008A30910520F48B81805D0E9441060F909A
:101180000F900F900F90CF91DF910895DF93CF9341
:10119000CDB7DEB727970FB6F894DEBF0FBECDBF31
:1011A00089836A834B838981843008F0EEC08A8109
:1011B000883008F0EAC08B81813009F06FC08981E6
:1011C000282F30E03F832E838E819F8181309105CF
:1011D00049F12E813F81223031052CF48E819F818F
:1011E000009761F0D2C02E813F812230310571F12C
:1011F0008E819F8183309105E9F1C7C0ABE3B0E0F8
:10120000EBE3F0E08081482F8A81282F30E081E0F5
:1012100090E0022E02C0880F991F0A94E2F7842BF7
:101220008C93B3C0A8E3B0E0E8E3F0E08081482FFE
:101230008A81282F30E081E090E0022E02C0880FE2
:10124000991F0A94E2F7842B8C939FC0A5E3B0E02A
:10125000E5E3F0E08081482F8A81282F30E081E0AB
:1012600090E0022E02C0880F991F0A94E2F7842BA7
:101270008C938BC0A2E3B0E0E2E3F0E08081482FE2
:101280008A81282F30E081E090E0022E02C0880F92
:10129000991F0A94E2F7842B8C9377C08B81882363
:1012A00009F073C08981282F30E03D832C838C8125
:1012B0009D818130910559F12C813D81223031058C
:1012C0002CF48C819D81009769F05FC02C813D8159
:1012D0002230310589F18C819D818330910509F49B
:1012E00040C053C0ABE3B0E0EBE3F0E08081482FB7
:1012F0008A81282F30E081E090E0022E02C0880F22
:10130000991F0A94E2F7809584238C933EC0A8E34A
:10131000B0E0E8E3F0E08081482F8A81282F30E0B8
:1013200081E090E0022E02C0880F991F0A94E2F734
:10133000809584238C9329C0A5E3B0E0E5E3F0E039
:101340008081482F8A81282F30E081E090E0022EB2
:1013500002C0880F991F0A94E2F7809584238C932A
:1013600014C0A2E3B0E0E2E3F0E08081482F8A817C
:10137000282F30E081E090E0022E02C0880F991FF4
:101380000A94E2F7809584238C9327960FB6F894FD
:10139000DEBF0FBECDBFCF91DF910895DF93CF9316
:1013A000CDB7DEB727970FB6F894DEBF0FBECDBF1F
:1013B00089836A834B838981843008F0EEC08A81F7
:1013C000883008F0EAC08B81813009F06FC08981D4
:1013D000282F30E03F832E838E819F8181309105BD
:1013E00049F12E813F81223031052CF48E819F817D
:1013F000009761F0D2C02E813F812230310571F11A
:101400008E819F8183309105E9F1C7C0AAE3B0E0E6
:10141000EAE3F0E08081482F8A81282F30E081E0E4
:1014200090E0022E02C0880F991F0A94E2F7842BE5
:101430008C93B3C0A7E3B0E0E7E3F0E08081482FEE
:101440008A81282F30E081E090E0022E02C0880FD0
:10145000991F0A94E2F7842B8C939FC0A4E3B0E019
:10146000E4E3F0E08081482F8A81282F30E081E09A
:1014700090E0022E02C0880F991F0A94E2F7842B95
:101480008C938BC0A1E3B0E0E1E3F0E08081482FD2
:101490008A81282F30E081E090E0022E02C0880F80
:1014A000991F0A94E2F7842B8C9377C08B81882351
:1014B00009F073C08981282F30E03D832C838C8113
:1014C0009D818130910559F12C813D81223031057A
:1014D0002CF48C819D81009769F05FC02C813D8147
:1014E0002230310589F18C819D818330910509F489
:1014F00040C053C0AAE3B0E0EAE3F0E08081482FA7
:101500008A81282F30E081E090E0022E02C0880F0F
:10151000991F0A94E2F7809584238C933EC0A7E339
:10152000B0E0E7E3F0E08081482F8A81282F30E0A7
:1015300081E090E0022E02C0880F991F0A94E2F722
:10154000809584238C9329C0A4E3B0E0E4E3F0E029
:101550008081482F8A81282F30E081E090E0022EA0
:1015600002C0880F991F0A94E2F7809584238C9318
:1015700014C0A1E3B0E0E1E3F0E08081482F8A816C
:10158000282F30E081E090E0022E02C0880F991FE2
:101590000A94E2F7809584238C9327960FB6F894EB
:1015A000DEBF0FBECDBFCF91DF910895DF93CF9304
:1015B00000D000D0CDB7DEB789836A8389818430BB
:1015C00090F58981282F30E03C832B838B819C818F
:1015D00081309105D1F02B813C81223031052CF4F2
:1015E0008B819C81009761F01EC02B813C81223051
:1015F000310581F08B819C818330910581F013C08E
:10160000EBE3F0E08A8180830EC0E8E3F0E08A81BA
:10161000808309C0E5E3F0E08A81808304C0E2E3CF
:10162000F0E08A8180830F900F900F900F90CF9100
:10163000DF910895DF93CF9300D000D0CDB7DEB710
:1016400089836A838981843090F58981282F30E0ED
:101650003C832B838B819C8181309105D1F02B8140
:101660003C81223031052CF48B819C81009761F004
:101670001EC02B813C812230310581F08B819C8101
:101680008330910581F013C0EAE3F0E08A81808322
:101690000EC0E7E3F0E08A81808309C0E4E3F0E074
:1016A0008A81808304C0E1E3F0E08A8180830F9027
:1016B0000F900F900F90CF91DF910895DF93CF930C
:1016C000CDB7DEB727970FB6F894DEBF0FBECDBFFC
:1016D0008A836B835D834C8319828C819D81009703
:1016E00009F478C08B81883008F074C08A81282F73
:1016F00030E03F832E834E815F814130510559F1A7
:101700008E819F818230910534F42E813F81211595
:10171000310569F05CC04E815F814230510579F13D
:101720008E819F818330910509F43DC050C0E9E36B
:10173000F0E08081282F30E08B81882F90E0A90194
:1017400002C0559547958A95E2F7CA018170EC81F0
:10175000FD81808341C0E6E3F0E08081282F30E006
:101760008B81882F90E0A90102C0559547958A95F5
:10177000E2F7CA018170EC81FD8180832DC0E3E333
:10178000F0E08081282F30E08B81882F90E0A90144
:1017900002C0559547958A95E2F7CA018170EC81A0
:1017A000FD81808319C0E0E3F0E08081282F30E0E4
:1017B0008B81882F90E0A90102C0559547958A95A5
:1017C000E2F7CA018170EC81FD81808305C081E070
:1017D000898302C081E08983898127960FB6F894B6
:1017E000DEBF0FBECDBFCF91DF910895DF93CF93C2
:1017F000CDB7DEB7A5E5B0E0E5E5F0E080818E7F0E
:101800008C93A5E5B0E0E5E5F0E0808182608C9303
:10181000ABE5B0E0EBE5F0E0808180648C93CF91A4
:10182000DF910895DF93CF9300D000D0CDB7DEB71E
:101830008A8381E089838A81282F30E03C832B834F
:101840008B819C81009769F02B813C81213031058F
:1018500081F4ABE5B0E0EBE5F0E0808180648C934F
:101860000AC0ABE5B0E0EBE5F0E080818F7B8C93C4
:1018700002C082E0898389810F900F900F900F90B2
:10188000CF91DF910895DF93CF9300D000D0CDB7F3
:10189000DEB78A8381E089838A81282F30E03C8308
:1018A0002B838B819C818230910509F443C02B816D
:1018B0003C812330310534F48B819C81813091054A
:1018C00051F147C02B813C812330310531F08B81B0
:1018D0009C818430910581F03CC0A5E5B0E0E5E550
:1018E000F0E080818E7F8C93A5E5B0E0E5E5F0E047
:1018F00080818D7F8C932FC0A5E5B0E0E5E5F0E019
:10190000808181608C93A5E5B0E0E5E5F0E0808121
:101910008D7F8C9320C0A5E5B0E0E5E5F0E0808107
:101920008E7F8C93A5E5B0E0E5E5F0E080818260F4
:101930008C9311C0A5E5B0E0E5E5F0E08081816021
:101940008C93A5E5B0E0E5E5F0E0808182608C93C2
:1019500002C082E0898389810F900F900F900F90D1
:10196000CF91DF910895DF93CF9300D00F92CDB741
:10197000DEB79B838A8381E089838A819B81833060
:10198000910539F08A819B819093D2008093D10098
:1019900002C083E0898389810F900F900F90CF91CF
:1019A000DF910895DF93CF9300D00F92CDB7DEB7CC
:1019B0009B838A8381E089838A819B81833091051F
:1019C00039F08A819B819093D4008093D30002C028
:1019D00083E0898389810F900F900F90CF91DF91E1
:1019E00008951F920F920FB60F9211242F933F93D9
:1019F0004F935F936F937F938F939F93AF93BF9317
:101A0000EF93FF93DF93CF93CDB7DEB78091D100F3
:101A10009091D2008330910529F0E091D100F091AE
:101A2000D2000995CF91DF91FF91EF91BF91AF91D6
:101A30009F918F917F916F915F914F913F912F91E6
:101A40000F900FBE0F901F9018951F920F920FB618
:101A50000F9211242F933F934F935F936F937F9334
:101A60008F939F93AF93BF93EF93FF93DF93CF93A6
:101A7000CDB7DEB78091D3009091D400833091052B
:101A800029F0E091D300F091D4000995CF91DF9136
:101A9000FF91EF91BF91AF919F918F917F916F9146
:101AA0005F914F913F912F910F900FBE0F901F901C
:101AB0001895DF93CF93CDB7DEB7AFE5B0E0EFE594
:101AC000F0E0808180688C93CF91DF910895DF935F
:101AD000CF93CDB7DEB7AFE5B0E0EFE5F0E08081C2
:101AE00080688C93CF91DF910895DF93CF93CDB72A
:101AF000DEB7AFE5B0E0EFE5F0E080818F778C9363
:101B0000CF91DF910895DF93CF9300D000D00F9253
:101B1000CDB7DEB78FEF8B8319825EC08981882FA6
:101B200090E0FC01E752FF4F908181E0692F40E097
:101B30000E94C6081A823DC08A81882F90E0FC016D
:101B4000EB52FF4F90819E012C5F3F4F81E0692F48
:101B5000A9010E945E0B8C81882341F58A81482F60
:101B600050E08981282F30E0CA01880F991F880F23
:101B7000991F820F931FFC01E352FF4F80818B83DB
:101B80000FC08A81882F90E0FC01EB52FF4F9081BB
:101B90009E012C5F3F4F81E0692FA9010E945E0BDF
:101BA0008C81882371F38B818D831CC08A818F5F28
:101BB0008A838A81843008F4BFCF8981882F90E09E
:101BC000FC01E752FF4F908181E0692F41E00E94C4
:101BD000C60889818F5F89838981843008F49ECF0C
:101BE0008B818D838D810F900F900F900F900F90B0
:101BF000CF91DF910895DF93CF930F92CDB7DEB7EA
:101C00008983E3E2F0E082E08083A1E2B0E0E1E2F8
:101C1000F0E080818E7F8C93A1E2B0E0E1E2F0E021
:101C200080818D7F8C938981882329F0E2E2F0E026
:101C30008981880F8083A6E5B0E0E6E5F0E0808149
:101C400084608C930F90CF91DF910895DF93CF93B1
:101C50000F92CDB7DEB78983E2E2F0E08981880F89
:101C60008083A6E5B0E0E6E5F0E0808184608C93B7
:101C70000F90CF91DF910895DF93CF930F92CDB75F
:101C8000DEB71982A6E5B0E0E6E5F0E0808180628B
:101C90008C93A6E5B0E0E6E5F0E0808180688C9367
:101CA000E6E5F0E080818823DCF3E1E2F0E080818A
:101CB000882F90E0887F90708830910511F081E046
:101CC000898389810F90CF91DF910895DF93CF931E
:101CD0000F92CDB7DEB71982A6E5B0E0E6E5F0E0F9
:101CE000808180628C93A6E5B0E0E6E5F0E080813B
:101CF00080688C93E6E5F0E080818823DCF3E1E204
:101D0000F0E08081882F90E0887F9070803191058D
:101D100011F082E0898389810F90CF91DF9108953E
:101D2000DF93CF9300D0CDB7DEB78A831982A6E5C3
:101D3000B0E0E6E5F0E080818F7D8C93E3E2F0E0B7
:101D40008A81880F8083A3E2B0E0E3E2F0E0808143
:101D50008E7F8C93E1E2F0E08081882F90E0887F95
:101D600090708831910511F083E0898389810F900B
:101D70000F90CF91DF910895DF93CF9300D0CDB72F
:101D8000DEB78A831982A6E5B0E0E6E5F0E080815F
:101D90008F7D8C93E3E2F0E08A81880F8083A3E259
:101DA000B0E0E3E2F0E0808181608C93E1E2F0E07A
:101DB0008081882F90E0887F90708034910511F0A9
:101DC00084E0898389810F900F90CF91DF910895EE
:101DD000DF93CF9300D0CDB7DEB78A831982E3E2D9
:101DE000F0E08A818083A6E5B0E0E6E5F0E080815E
:101DF00080688C93E6E5F0E080818823DCF3E1E203
:101E0000F0E08081882F90E0887F90708832910583
:101E100011F085E0898389810F900F90CF91DF9138
:101E20000895DF93CF9300D00F92CDB7DEB79B8399
:101E30008A831982A6E5B0E0E6E5F0E0808180645F
:101E40008C93A6E5B0E0E6E5F0E0808180688C93B5
:101E5000E6E5F0E080818823DCF3E1E2F0E08081D8
:101E6000882F90E0887F90708035910519F086E08A
:101E7000898306C0E3E2F0E08081EA81FB81808310
:101E800089810F900F900F90CF91DF910895DF938C
:101E9000CF93CDB7DEB7A6E5B0E0E6E5F0E0808110
:101EA00080618C93A6E5B0E0E6E5F0E08081806893
:101EB0008C93CF91DF910895DF93CF9300D000D022
:101EC00000D0CDB7DEB769837A838B839C835E8332
:101ED0004D830E943C0E8D819E81892F99278465B8
:101EE0000E94900E8D810E94E80E89810E94E80E6A
:101EF0000E94470F26960FB6F894DEBF0FBECDBFE7
:101F0000CF91DF910895DF93CF9300D000D0CDB76C
:101F1000DEB79A8389837C836B830E943C0E8B811E
:101F20009C81892F992784650E94900E8B810E9445
:101F3000E80E0E94660E8B819C81892F992784650B
:101F40000E94BC0E89819A810E94110F0E94470F46
:101F50000F900F900F900F90CF91DF910895DF9326
:101F6000CF93CDB7DEB782E06FEF0E941A0B80E00F
:101F700062E041E00E94CE0980E063E041E00E941F
:101F8000CE0980E064E041E00E94CE0981E06FE08C
:101F90000E941A0B81E06FEF0E94D60A83E062E094
:101FA00040E00E94CE0983E062E041E00E94C60862
:101FB00084E797E20E94B30C0E94F60B0E94DF06B2
:101FC0000E94670DCF91DF9108950F931F93DF93C8
:101FD000CF93CDB7DEB7CA5AD0400FB6F894DEBF64
:101FE0000FBECDBFFE01E755FF4F89E0808380E63D
:101FF00090E00E946D070C94A31A8091F900813043
:1020000009F0CFC0FE01E755FF4F88E080831092B2
:10201000F9008AE08093EE0083E08093ED0081E098
:102020000E94A3058AE690E00E946D07FE01EB5531
:10203000FF4F80E090E0AAEFB3E480839183A28316
:10204000B3838E010F551F4FFE01EB55FF4F60818B
:1020500071818281938120E030E04AEF54E40E9454
:102060001F02DC01CB01F80180839183A283B3833B
:10207000FE01EF55FF4F608171818281938120E0E5
:1020800030E040E85FE30E947903882344F4FE01D6
:10209000E156FF4F81E090E09183808364C0FE01B0
:1020A000EF55FF4F608171818281938120E03FEF86
:1020B0004FE757E40E94190318160CF043C0FE01C5
:1020C000EB55FF4F608171818281938120E030E088
:1020D00040E251E40E941F02DC01CB018E01015657
:1020E0001F4FBC01CD010E944900DC01CB01F8016A
:1020F000918380831FC0FE01E356FF4F88EC90E080
:1021000091838083FE01E356FF4F80819181019787
:10211000F1F7FE01E356FF4F91838083DE01A15664
:10212000BF4FFE01E156FF4F8081918101971196CB
:102130009C938E93FE01E156FF4F80819181009721
:10214000D1F627C08E0101561F4FFE01EF55FF4FFC
:1021500060817181828193810E944900DC01CB0101
:10216000F80191838083DE01A556BF4FFE01E15641
:10217000FF4F808191818D939C93FE01E556FF4F27
:10218000808191810197F1F7FE01E556FF4F918320
:10219000808381E00E94A30580E690E00E946D07A5
:1021A0000DC00E94830DFE01E655FF4F8083FE01A6
:1021B000E655FF4F80818F3F09F41FCFFE01E655A2
:1021C000FF4F8081882309F00CC1FE01E755FF4FC6
:1021D00080E060810E949607FE01E655FF4F8081F6
:1021E000805D0E944106FE01E956FF4F80E090E0CD
:1021F000AAEFB3E480839183A283B3838E010D564B
:102200001F4FFE01E956FF4F6081718182819381EA
:1022100020E030E04AEF54E40E941F02DC01CB01D1
:10222000F80180839183A283B383FE01ED56FF4FB3
:10223000608171818281938120E030E040E85FE33A
:102240000E947903882344F4FE01EF56FF4F81E09A
:1022500090E09183808364C0FE01ED56FF4F608162
:1022600071818281938120E03FEF4FE757E40E9424
:10227000190318160CF043C0FE01E956FF4F6081A8
:1022800071818281938120E030E040E251E40E943C
:102290001F02DC01CB018E010F561F4FBC01CD0187
:1022A0000E944900DC01CB01F801918380831FC0AB
:1022B000FE01E157FF4F88EC90E091838083FE019F
:1022C000E157FF4F808191810197F1F7FE01E157BE
:1022D000FF4F91838083DE01AF56BF4FFE01EF5663
:1022E000FF4F80819181019711969C938E93FE01FF
:1022F000EF56FF4F808191810097D1F627C08E0164
:102300000F561F4FFE01ED56FF4F60817181828194
:1023100093810E944900DC01CB01F8019183808305
:10232000DE01A357BF4FFE01EF56FF4F8081918121
:102330008D939C93FE01E357FF4F8081918101971C
:10234000F1F7FE01E357FF4F91838083FE01E755CC
:10235000FF4F80E060810E94960787E790E00E942F
:102360006D07FE01E755FF4F8081893091F4FE0132
:10237000E655FF4F8081882F90E0A0E0B0E0809389
:10238000FA009093FB00A093FC00B093FD000C9426
:102390009A1A8091FA009091FB00A091FC00B091F4
:1023A000FD002AE030E040E050E0BC01CD010E9499
:1023B0009B279B01AC01FE01E655FF4F8081882FD2
:1023C00090E0A0E0B0E0820F931FA41FB51F8093A0
:1023D000FA009093FB00A093FC00B093FD000C94D6
:1023E0009A1AFE01E655FF4F8081813009F00CC139
:1023F000FE01E755FF4F80E060810E949607FE01D5
:10240000E655FF4F8081805D0E944106FE01E7573F
:10241000FF4F80E090E0AAEFB3E480839183A28332
:10242000B3838E010B571F4FFE01E757FF4F6081AB
:1024300071818281938120E030E04AEF54E40E9470
:102440001F02DC01CB01F80180839183A283B38357
:10245000FE01EB57FF4F608171818281938120E003
:1024600030E040E85FE30E947903882344F4FE01F2
:10247000ED57FF4F81E090E09183808364C0FE01BF
:10248000EB57FF4F608171818281938120E03FEFA4
:102490004FE757E40E94190318160CF043C0FE01E1
:1024A000E757FF4F608171818281938120E030E0A6
:1024B00040E251E40E941F02DC01CB018E010D5766
:1024C0001F4FBC01CD010E944900DC01CB01F80186
:1024D000918380831FC0FE01EF57FF4F88EC90E08F
:1024E00091838083FE01EF57FF4F80819181019797
:1024F000F1F7FE01EF57FF4F91838083DE01AD5767
:10250000BF4FFE01ED57FF4F8081918101971196DA
:102510009C938E93FE01ED57FF4F80819181009730
:10252000D1F627C08E010D571F4FFE01EB57FF4F0D
:1025300060817181828193810E944900DC01CB011D
:10254000F80191838083DE01A158BF4FFE01ED5752
:10255000FF4F808191818D939C93FE01E158FF4F45
:10256000808191810197F1F7FE01E158FF4F91833E
:102570008083FE01E755FF4F80E060810E9496074F
:1025800087E790E00E946D07FE01E755FF4F8081CD
:10259000893091F4FE01E655FF4F8081882F90E04D
:1025A000A0E0B0E08093FA009093FB00A093FC00C1
:1025B000B093FD000C949A1A8091FA009091FB0060
:1025C000A091FC00B091FD002AE030E040E050E036
:1025D000BC01CD010E949B279B01AC01FE01E65589
:1025E000FF4F8081882F90E0A0E0B0E0820F931F22
:1025F000A41FB51F8093FA009093FB00A093FC00EA
:10260000B093FD000C949A1AFE01E655FF4F8081AD
:10261000823009F00AC1FE01E755FF4F80E060817A
:102620000E949607FE01E655FF4F8081805D0E9463
:102630004106FE01E558FF4F80E090E0AAEFB3E4C9
:1026400080839183A283B3838E0109581F4FFE01BB
:10265000E558FF4F608171818281938120E030E0F5
:102660004AEF54E40E941F02DC01CB01F801808391
:102670009183A283B383FE01E958FF4F608171818A
:102680008281938120E030E040E85FE30E9479039B
:10269000882344F4FE01EB58FF4F81E090E09183E2
:1026A000808364C0FE01E958FF4F6081718182819F
:1026B000938120E03FEF4FE757E40E94190318167B
:1026C0000CF043C0FE01E558FF4F608171818281AB
:1026D000938120E030E040E251E40E941F02DC01DF
:1026E000CB018E010B581F4FBC01CD010E94490048
:1026F000DC01CB01F801918380831FC0FE01ED58FE
:10270000FF4F88EC90E091838083FE01ED58FF4FEE
:10271000808191810197F1F7FE01ED58FF4F918380
:102720008083DE01AB58BF4FFE01EB58FF4F808125
:102730009181019711969C938E93FE01EB58FF4F68
:10274000808191810097D1F627C08E010B581F4FD1
:10275000FE01E958FF4F60817181828193810E945F
:102760004900DC01CB01F80191838083DE01AF5881
:10277000BF4FFE01EB58FF4F808191818D939C9359
:10278000FE01EF58FF4F808191810197F1F7FE0123
:10279000EF58FF4F91838083FE01E755FF4F80E0A4
:1027A00060810E94960787E790E00E946D07FE0116
:1027B000E755FF4F8081893089F4FE01E655FF4FD0
:1027C0008081882F90E0A0E0B0E08093FA009093A1
:1027D000FB00A093FC00B093FD00ACC68091FA0012
:1027E0009091FB00A091FC00B091FD002AE030E048
:1027F00040E050E0BC01CD010E949B279B01AC0151
:10280000FE01E655FF4F8081882F90E0A0E0B0E008
:10281000820F931FA41FB51F8093FA009093FB00B3
:10282000A093FC00B093FD0085C6FE01E655FF4F66
:102830008081833009F00AC1FE01E755FF4F80E037
:1028400060810E949607FE01E655FF4F8081805D02
:102850000E944106FE01E359FF4F80E090E0AAEF9D
:10286000B3E480839183A283B3838E0107591F4F02
:10287000FE01E359FF4F608171818281938120E0E5
:1028800030E04AEF54E40E941F02DC01CB01F80162
:1028900080839183A283B383FE01E759FF4F608158
:1028A00071818281938120E030E040E85FE30E9403
:1028B0007903882344F4FE01E959FF4F81E090E059
:1028C0009183808364C0FE01E759FF4F608171816D
:1028D0008281938120E03FEF4FE757E40E94190384
:1028E00018160CF043C0FE01E359FF4F608171815F
:1028F0008281938120E030E040E251E40E941F0297
:10290000DC01CB018E0109591F4FBC01CD010E9492
:102910004900DC01CB01F801918380831FC0FE01D7
:10292000EB59FF4F88EC90E091838083FE01EB59D7
:10293000FF4F808191810197F1F7FE01EB59FF4F25
:1029400091838083DE01A959BF4FFE01E959FF4FF2
:1029500080819181019711969C938E93FE01E95994
:10296000FF4F808191810097D1F627C08E010959D0
:102970001F4FFE01E759FF4F608171818281938172
:102980000E944900DC01CB01F80191838083DE01C4
:10299000AD59BF4FFE01E959FF4F808191818D9361
:1029A0009C93FE01ED59FF4F808191810197F1F7D2
:1029B000FE01ED59FF4F91838083FE01E755FF4FE4
:1029C00080E060810E94960787E790E00E946D0793
:1029D000FE01E755FF4F8081893089F4FE01E655FD
:1029E000FF4F8081882F90E0A0E0B0E08093FA0054
:1029F0009093FB00A093FC00B093FD009BC58091D9
:102A0000FA009091FB00A091FC00B091FD002AE03B
:102A100030E040E050E0BC01CD010E949B279B01CB
:102A2000AC01FE01E655FF4F8081882F90E0A0E0C9
:102A3000B0E0820F931FA41FB51F8093FA009093FC
:102A4000FB00A093FC00B093FD0074C5FE01E655A9
:102A5000FF4F8081843009F00AC1FE01E755FF4F26
:102A600080E060810E949607FE01E655FF4F80815D
:102A7000805D0E944106FE01E15AFF4F80E090E038
:102A8000AAEFB3E480839183A283B3838E01055AB6
:102A90001F4FFE01E15AFF4F608171818281938156
:102AA00020E030E04AEF54E40E941F02DC01CB0139
:102AB000F80180839183A283B383FE01E55AFF4F1F
:102AC000608171818281938120E030E040E85FE3A2
:102AD0000E947903882344F4FE01E75AFF4F81E006
:102AE00090E09183808364C0FE01E55AFF4F6081CE
:102AF00071818281938120E03FEF4FE757E40E948C
:102B0000190318160CF043C0FE01E15AFF4F608113
:102B100071818281938120E030E040E251E40E94A3
:102B20001F02DC01CB018E01075A1F4FBC01CD01F2
:102B30000E944900DC01CB01F801918380831FC012
:102B4000FE01E95AFF4F88EC90E091838083FE01FB
:102B5000E95AFF4F808191810197F1F7FE01E95A0F
:102B6000FF4F91838083DE01A75ABF4FFE01E75AD2
:102B7000FF4F80819181019711969C938E93FE0166
:102B8000E75AFF4F808191810097D1F627C08E01CF
:102B9000075A1F4FFE01E55AFF4F60817181828104
:102BA00093810E944900DC01CB01F801918380836D
:102BB000DE01AB5ABF4FFE01E75AFF4F8081918182
:102BC0008D939C93FE01EB5AFF4F80819181019779
:102BD000F1F7FE01EB5AFF4F91838083FE01E75529
:102BE000FF4F80E060810E94960787E790E00E9497
:102BF0006D07FE01E755FF4F8081893089F4FE01A2
:102C0000E655FF4F8081882F90E0A0E0B0E08093F0
:102C1000FA009093FB00A093FC00B093FD008AC4DF
:102C20008091FA009091FB00A091FC00B091FD0012
:102C30002AE030E040E050E0BC01CD010E949B273B
:102C40009B01AC01FE01E655FF4F8081882F90E08B
:102C5000A0E0B0E0820F931FA41FB51F8093FA007D
:102C60009093FB00A093FC00B093FD0063C4FE01B1
:102C7000E655FF4F8081853009F00AC1FE01E75516
:102C8000FF4F80E060810E949607FE01E655FF4FEE
:102C90008081805D0E944106FE01EF5AFF4F80E077
:102CA00090E0AAEFB3E480839183A283B3838E0183
:102CB000035B1F4FFE01EF5AFF4F608171818281DC
:102CC000938120E030E04AEF54E40E941F02DC01CF
:102CD000CB01F80180839183A283B383FE01E35B80
:102CE000FF4F608171818281938120E030E040E874
:102CF0005FE30E947903882344F4FE01E55BFF4F04
:102D000081E090E09183808364C0FE01E35BFF4F2C
:102D1000608171818281938120E03FEF4FE757E42A
:102D20000E94190318160CF043C0FE01EF5AFF4F22
:102D3000608171818281938120E030E040E251E442
:102D40000E941F02DC01CB018E01055B1F4FBC01FD
:102D5000CD010E944900DC01CB01F8019183808301
:102D60001FC0FE01E75BFF4F88EC90E091838083FA
:102D7000FE01E75BFF4F808191810197F1F7FE0132
:102D8000E75BFF4F91838083DE01A55BBF4FFE01B0
:102D9000E55BFF4F80819181019711969C938E9303
:102DA000FE01E55BFF4F808191810097D1F627C03E
:102DB0008E01055B1F4FFE01E35BFF4F6081718158
:102DC000828193810E944900DC01CB01F80191834B
:102DD0008083DE01A95BBF4FFE01E55BFF4F808171
:102DE00091818D939C93FE01E95BFF4F80819181DE
:102DF0000197F1F7FE01E95BFF4F91838083FE01AC
:102E0000E755FF4F80E060810E94960787E790E0DA
:102E10000E946D07FE01E755FF4F8081893089F4DC
:102E2000FE01E655FF4F8081882F90E0A0E0B0E0E2
:102E30008093FA009093FB00A093FC00B093FD00F8
:102E400079C38091FA009091FB00A091FC00B091B1
:102E5000FD002AE030E040E050E0BC01CD010E94DE
:102E60009B279B01AC01FE01E655FF4F8081882F17
:102E700090E0A0E0B0E0820F931FA41FB51F8093E5
:102E8000FA009093FB00A093FC00B093FD0052C3A6
:102E9000FE01E655FF4F8081863009F0DCC0FE015F
:102EA000E755FF4F80E060810E949607FE01E655DE
:102EB000FF4F8081805D0E944106FE01ED5BFF4F68
:102EC00080E090E0AAEFB3E480839183A283B38390
:102ED0008E01015C1F4FFE01ED5BFF4F6081718130
:102EE0008281938120E030E04AEF54E40E941F0287
:102EF000DC01CB01F80180839183A283B383FE01BF
:102F0000FF96608171818281938120E030E040E80A
:102F10005FE30E94790388232CF481E090E09EAF68
:102F20008DAF46C0FE01FF966081718182819381E1
:102F300020E03FEF4FE757E40E941903181664F5AD
:102F4000FE01ED5BFF4F608171818281938120E002
:102F500030E040E251E40E941F02DC01CB01BC01E1
:102F6000CD010E944900DC01CB019EAF8DAF0FC0A7
:102F700088EC90E09CAF8BAF8BAD9CAD0197F1F7E7
:102F80009CAF8BAF8DAD9EAD01979EAF8DAF8DADDC
:102F90009EAD009769F716C0FE01FF9660817181B2
:102FA000828193810E944900DC01CB019EAF8DAFED
:102FB0008DAD9EAD9AAF89AF89AD9AAD0197F1F70E
:102FC0009AAF89AFFE01E755FF4F80E060810E9414
:102FD000960787E790E00E946D07FE01E755FF4FD7
:102FE0008081893089F4FE01E655FF4F8081882F6A
:102FF00090E0A0E0B0E08093FA009093FB00A093F3
:10300000FC00B093FD0096C28091FA009091FB0005
:10301000A091FC00B091FD002AE030E040E050E0DB
:10302000BC01CD010E949B279B01AC01FE01E6552E
:10303000FF4F8081882F90E0A0E0B0E0820F931FC7
:10304000A41FB51F8093FA009093FB00A093FC008F
:10305000B093FD006FC2FE01E655FF4F80818730BF
:1030600009F0C9C0FE01E755FF4F80E060810E9472
:103070009607FE01E655FF4F8081805D0E94410664
:1030800080E090E0AAEFB3E48DAB9EABAFABB8AFFE
:103090006DA97EA98FA998AD20E030E04AEF54E4F5
:1030A0000E941F02DC01CB0189AB9AABABABBCAB7E
:1030B00069A97AA98BA99CA920E030E040E85FE3E8
:1030C0000E94790388232CF481E090E098AB8FA7CD
:1030D0003FC069A97AA98BA99CA920E03FEF4FE7DF
:1030E00057E40E94190318164CF56DA97EA98FA903
:1030F00098AD20E030E040E251E40E941F02DC0184
:10310000CB01BC01CD010E944900DC01CB0198AB91
:103110008FA70FC088EC90E09EA78DA78DA59EA5D8
:103120000197F1F79EA78DA78FA598A9019798AB56
:103130008FA78FA598A9009769F714C069A97AA9E4
:103140008BA99CA90E944900DC01CB0198AB8FA7F9
:103150008FA598A99CA78BA78BA59CA50197F1F794
:103160009CA78BA7FE01E755FF4F80E060810E947E
:10317000960787E790E00E946D07FE01E755FF4F35
:103180008081893089F4FE01E655FF4F8081882FC8
:1031900090E0A0E0B0E08093FA009093FB00A09351
:1031A000FC00B093FD00C6C18091FA009091FB0035
:1031B000A091FC00B091FD002AE030E040E050E03A
:1031C000BC01CD010E949B279B01AC01FE01E6558D
:1031D000FF4F8081882F90E0A0E0B0E0820F931F26
:1031E000A41FB51F8093FA009093FB00A093FC00EE
:1031F000B093FD009FC1FE01E655FF4F80818830EE
:1032000009F0C9C0FE01E755FF4F80E060810E94D0
:103210009607FE01E655FF4F8081805D0E944106C2
:1032200080E090E0AAEFB3E48FA398A7A9A7BAA77C
:103230006FA178A589A59AA520E030E04AEF54E473
:103240000E941F02DC01CB018BA39CA3ADA3BEA3F4
:103250006BA17CA18DA19EA120E030E040E85FE35E
:103260000E94790388232CF481E090E09AA389A33B
:103270003FC06BA17CA18DA19EA120E03FEF4FE755
:1032800057E40E94190318164CF56FA178A589A57B
:103290009AA520E030E040E251E40E941F02DC01E8
:1032A000CB01BC01CD010E944900DC01CB019AA3F6
:1032B00089A30FC088EC90E098A38F8F8F8D98A181
:1032C0000197F1F798A38F8F89A19AA101979AA3EB
:1032D00089A389A19AA1009769F714C06BA17CA169
:1032E0008DA19EA10E944900DC01CB019AA389A374
:1032F00089A19AA19E8F8D8F8D8D9E8D0197F1F75B
:103300009E8F8D8FFE01E755FF4F80E060810E9408
:10331000960787E790E00E946D07FE01E755FF4F93
:103320008081893089F4FE01E655FF4F8081882F26
:1033300090E0A0E0B0E08093FA009093FB00A093AF
:10334000FC00B093FD00F6C08091FA009091FB0064
:10335000A091FC00B091FD002AE030E040E050E098
:10336000BC01CD010E949B279B01AC01FE01E655EB
:10337000FF4F8081882F90E0A0E0B0E0820F931F84
:10338000A41FB51F8093FA009093FB00A093FC004C
:10339000B093FD00CFC0FE01E655FF4F808189301C
:1033A00009F0C8C0FE01E755FF4F80E060810E9430
:1033B0009607FE01E655FF4F8081805D0E94410621
:1033C00080E090E0AAEFB3E4898F9A8FAB8FBC8F37
:1033D000698D7A8D8B8D9C8D20E030E04AEF54E42E
:1033E0000E941F02DC01CB018D8B9E8BAF8BB88FAF
:1033F0006D897E898F89988D20E030E040E85FE319
:103400000E94790388232CF481E090E09C8B8B8BC5
:103410003FC06D897E898F89988D20E03FEF4FE70F
:1034200057E40E94190318164CF5698D7A8D8B8D1F
:103430009C8D20E030E040E251E40E941F02DC015C
:10344000CB01BC01CD010E944900DC01CB019C8B6A
:103450008B8B0FC088EC90E09A8B898B89899A8935
:103460000197F1F79A8B898B8B899C8901979C8BAB
:103470008B8B8B899C89009769F714C06D897E8935
:103480008F89988D0E944900DC01CB019C8B8B8B2E
:103490008B899C89988B8F878F8598890197F1F705
:1034A000988B8F87FE01E755FF4F80E060810E9477
:1034B000960787E790E00E946D07FE01E755FF4FF2
:1034C0008081893089F4FE01E655FF4F8081882F85
:1034D00090E0A0E0B0E08093FA009093FB00A0930E
:1034E000FC00B093FD0026C08091FA009091FB0093
:1034F000A091FC00B091FD002AE030E040E050E0F7
:10350000BC01CD010E949B279B01AC01FE01E65549
:10351000FF4F8081882F90E0A0E0B0E0820F931FE2
:10352000A41FB51F8093FA009093FB00A093FC00AA
:10353000B093FD00DE01A755BF4FFE01E755FF4FD9
:1035400080818F5F8C93FE01E755FF4F80818D3026
:1035500010F40C94FD0F8091FA009091FB00A09163
:10356000FC00B091FD00BC01CD0145E550E00E949A
:103570005C0F80E090E0A0E2B1E48B879C87AD8790
:10358000BE876B857C858D859E8520E030E04AEF87
:1035900054E40E941F02DC01CB018F839887A98726
:1035A000BA876F81788589859A8520E030E040E888
:1035B0005FE30E94790388232CF481E090E09E83EE
:1035C0008D833FC06F81788589859A8520E03FEFA4
:1035D0004FE757E40E94190318164CF56B857C855C
:1035E0008D859E8520E030E040E251E40E941F027C
:1035F000DC01CB01BC01CD010E944900DC01CB0103
:103600009E838D830FC088EC90E09C838B838B819D
:103610009C810197F1F79C838B838D819E8101971B
:103620009E838D838D819E81009769F714C06F8181
:10363000788589859A850E944900DC01CB019E83AB
:103640008D838D819E819A83898389819A81019757
:10365000F1F79A838983C655DF4F0FB6F894DEBF22
:103660000FBECDBFCF91DF911F910F9108950F93A2
:103670001F93DF93CF93CDB7DEB7CC5BD0400FB6AF
:10368000F894DEBF0FBECDBF81E00E94A30589E79D
:1036900090E00E946D070C94EF258091F900813035
:1036A00009F0CAC01092F9008AE08093EE0083E02E
:1036B0008093ED0081E00E94A3058AE690E00E94DD
:1036C0006D07FE01ED54FF4F80E090E0AAEFB3E4F8
:1036D00080839183A283B3838E0101551F4FFE0126
:1036E000ED54FF4F608171818281938120E030E051
:1036F0004AEF54E40E941F02DC01CB01F8018083F1
:103700009183A283B383FE01E155FF4F60817181F4
:103710008281938120E030E040E85FE30E947903FA
:10372000882344F4FE01E355FF4F81E090E091834C
:10373000808364C0FE01E155FF4F60817181828109
:10374000938120E03FEF4FE757E40E9419031816DA
:103750000CF043C0FE01ED54FF4F60817181828106
:10376000938120E030E040E251E40E941F02DC013E
:10377000CB018E0103551F4FBC01CD010E944900B2
:10378000DC01CB01F801918380831FC0FE01E55568
:10379000FF4F88EC90E091838083FE01E555FF4F59
:1037A000808191810197F1F7FE01E555FF4F9183EB
:1037B0008083DE01A355BF4FFE01E355FF4F80819B
:1037C0009181019711969C938E93FE01E355FF4FD3
:1037D000808191810097D1F627C08E0103551F4F3C
:1037E000FE01E155FF4F60817181828193810E94CA
:1037F0004900DC01CB01F80191838083DE01A755EC
:10380000BF4FFE01E355FF4F808191818D939C93C3
:10381000FE01E755FF4F808191810197F1F7FE018D
:10382000E755FF4F9183808381E00E94A30589E7DC
:1038300090E00E946D070DC00E94830DFE01E854C8
:10384000FF4F8083FE01E854FF4F80818F3F09F4D2
:1038500024CFFE01E854FF4F8081882309F006C180
:103860009091EE0080E0692F0E949607FE01E854D7
:10387000FF4F8081805D0E944106FE01EB55FF4FA6
:1038800080E090E0AAEFB3E480839183A283B383C6
:103890008E010F551F4FFE01EB55FF4F6081718167
:1038A0008281938120E030E04AEF54E40E941F02BD
:1038B000DC01CB01F80180839183A283B383FE01F5
:1038C000EF55FF4F608171818281938120E030E06C
:1038D00040E85FE30E947903882344F4FE01E15647
:1038E000FF4F81E090E09183808364C0FE01EF553B
:1038F000FF4F608171818281938120E03FEF4FE72C
:1039000057E40E94190318160CF043C0FE01EB5552
:10391000FF4F608171818281938120E030E040E23D
:1039200051E40E941F02DC01CB018E0101561F4FA2
:10393000BC01CD010E944900DC01CB01F80191835B
:1039400080831FC0FE01E356FF4F88EC90E0918317
:103950008083FE01E356FF4F808191810197F1F74B
:10396000FE01E356FF4F91838083DE01A156BF4FD6
:10397000FE01E156FF4F80819181019711969C9342
:103980008E93FE01E156FF4F808191810097D1F621
:1039900027C08E0101561F4FFE01EF55FF4F60817A
:1039A0007181828193810E944900DC01CB01F80181
:1039B00091838083DE01A556BF4FFE01E156FF4F84
:1039C000808191818D939C93FE01E556FF4F80810C
:1039D00091810197F1F7FE01E556FF4F91838083B6
:1039E0009091EE0080E0692F0E94960787E790E0B3
:1039F0000E946D078091EE008B3091F49E01275458
:103A00003F4FFE01E854FF4F8081882F90E0A0E0F7
:103A1000B0E0F90180839183A283B3830C94EA25FB
:103A2000FE01E754FF4F80819181A281B3812AE09A
:103A300030E040E050E0BC01CD010E949B279B019B
:103A4000AC01FE01E854FF4F8081882F90E0A0E098
:103A5000B0E0FE01E754FF4F820F931FA41FB51F74
:103A600080839183A283B3830C94EA25FE01E854FA
:103A7000FF4F8081813009F006C19091EE0080E017
:103A8000692F0E949607FE01E854FF4F8081805DF8
:103A90000E944106FE01E956FF4F80E090E0AAEF48
:103AA000B3E480839183A283B3838E010D561F4FAD
:103AB000FE01E956FF4F608171818281938120E090
:103AC00030E04AEF54E40E941F02DC01CB01F80110
:103AD00080839183A283B383FE01ED56FF4F608103
:103AE00071818281938120E030E040E85FE30E94B1
:103AF0007903882344F4FE01EF56FF4F81E090E004
:103B00009183808364C0FE01ED56FF4F6081718117
:103B10008281938120E03FEF4FE757E40E94190331
:103B200018160CF043C0FE01E956FF4F6081718109
:103B30008281938120E030E040E251E40E941F0244
:103B4000DC01CB018E010F561F4FBC01CD010E943D
:103B50004900DC01CB01F801918380831FC0FE0185
:103B6000E157FF4F88EC90E091838083FE01E1579D
:103B7000FF4F808191810197F1F7FE01E157FF4FDF
:103B800091838083DE01AF56BF4FFE01EF56FF4F9A
:103B900080819181019711969C938E93FE01EF563F
:103BA000FF4F808191810097D1F627C08E010F567B
:103BB0001F4FFE01ED56FF4F60817181828193811D
:103BC0000E944900DC01CB01F80191838083DE0172
:103BD000A357BF4FFE01EF56FF4F808191818D9318
:103BE0009C93FE01E357FF4F808191810197F1F78C
:103BF000FE01E357FF4F918380839091EE0080E0B8
:103C0000692F0E94960787E790E00E946D078091D8
:103C1000EE008B3091F49E0127543F4FFE01E85493
:103C2000FF4F8081882F90E0A0E0B0E0F901808311
:103C30009183A283B3830C94EA25FE01E754FF4FDE
:103C400080819181A281B3812AE030E040E050E0A0
:103C5000BC01CD010E949B279B01AC01FE01E854F1
:103C6000FF4F8081882F90E0A0E0B0E0FE01E75494
:103C7000FF4F820F931FA41FB51F80839183A283E0
:103C8000B3830C94EA25FE01E854FF4F8081823013
:103C900009F004C19091EE0080E0692F0E94960720
:103CA000FE01E854FF4F8081805D0E944106FE01C5
:103CB000E757FF4F80E090E0AAEFB3E48083918361
:103CC000A283B3838E010B571F4FFE01E757FF4FAF
:103CD000608171818281938120E030E04AEF54E479
:103CE0000E941F02DC01CB01F80180839183A28333
:103CF000B383FE01EB57FF4F608171818281938115
:103D000020E030E040E85FE30E947903882344F438
:103D1000FE01ED57FF4F81E090E09183808364C006
:103D2000FE01EB57FF4F608171818281938120E01A
:103D30003FEF4FE757E40E94190318160CF043C0F9
:103D4000FE01E757FF4F608171818281938120E0FE
:103D500030E040E251E40E941F02DC01CB018E0101
:103D60000D571F4FBC01CD010E944900DC01CB0162
:103D7000F801918380831FC0FE01EF57FF4F88EC4D
:103D800090E091838083FE01EF57FF4F8081918106
:103D90000197F1F7FE01EF57FF4F91838083DE011A
:103DA000AD57BF4FFE01ED57FF4F808191810197C5
:103DB00011969C938E93FE01ED57FF4F8081918168
:103DC0000097D1F627C08E010D571F4FFE01EB570C
:103DD000FF4F60817181828193810E944900DC01E3
:103DE000CB01F80191838083DE01A158BF4FFE0112
:103DF000ED57FF4F808191818D939C93FE01E15897
:103E0000FF4F808191810197F1F7FE01E158FF4F4B
:103E1000918380839091EE0080E0692F0E94960745
:103E200087E790E00E946D078091EE008B3089F467
:103E30009E0127543F4FFE01E854FF4F8081882F99
:103E400090E0A0E0B0E0F90180839183A283B38386
:103E5000C1C6FE01E754FF4F80819181A281B381E9
:103E60002AE030E040E050E0BC01CD010E949B27F9
:103E70009B01AC01FE01E854FF4F8081882F90E048
:103E8000A0E0B0E0FE01E754FF4F820F931FA41F94
:103E9000B51F80839183A283B3839CC6FE01E8543F
:103EA000FF4F8081833009F004C19091EE0080E0E3
:103EB000692F0E949607FE01E854FF4F8081805DC4
:103EC0000E944106FE01E558FF4F80E090E0AAEF16
:103ED000B3E480839183A283B3838E0109581F4F7B
:103EE000FE01E558FF4F608171818281938120E05E
:103EF00030E04AEF54E40E941F02DC01CB01F801DC
:103F000080839183A283B383FE01E958FF4F6081D0
:103F100071818281938120E030E040E85FE30E947C
:103F20007903882344F4FE01EB58FF4F81E090E0D1
:103F30009183808364C0FE01E958FF4F60817181E5
:103F40008281938120E03FEF4FE757E40E941903FD
:103F500018160CF043C0FE01E558FF4F60817181D7
:103F60008281938120E030E040E251E40E941F0210
:103F7000DC01CB018E010B581F4FBC01CD010E940B
:103F80004900DC01CB01F801918380831FC0FE0151
:103F9000ED58FF4F88EC90E091838083FE01ED584F
:103FA000FF4F808191810197F1F7FE01ED58FF4F9E
:103FB00091838083DE01AB58BF4FFE01EB58FF4F6A
:103FC00080819181019711969C938E93FE01EB580D
:103FD000FF4F808191810097D1F627C08E010B5849
:103FE0001F4FFE01E958FF4F6081718182819381EB
:103FF0000E944900DC01CB01F80191838083DE013E
:10400000AF58BF4FFE01EB58FF4F808191818D93D8
:104010009C93FE01EF58FF4F808191810197F1F74A
:10402000FE01EF58FF4F918380839091EE0080E076
:10403000692F0E94960787E790E00E946D078091A4
:10404000EE008B3089F49E0127543F4FFE01E85467
:10405000FF4F8081882F90E0A0E0B0E0F9018083DD
:104060009183A283B383B6C5FE01E754FF4F8081DD
:104070009181A281B3812AE030E040E050E0BC01B0
:10408000CD010E949B279B01AC01FE01E854FF4F2C
:104090008081882F90E0A0E0B0E0FE01E754FF4F60
:1040A000820F931FA41FB51F80839183A283B383C4
:1040B00091C5FE01E854FF4F8081843009F004C1AE
:1040C0009091EE0080E0692F0E949607FE01E8546F
:1040D000FF4F8081805D0E944106FE01E359FF4F42
:1040E00080E090E0AAEFB3E480839183A283B3835E
:1040F0008E0107591F4FFE01E359FF4F6081718107
:104100008281938120E030E04AEF54E40E941F0254
:10411000DC01CB01F80180839183A283B383FE018C
:10412000E759FF4F608171818281938120E030E007
:1041300040E85FE30E947903882344F4FE01E959D3
:10414000FF4F81E090E09183808364C0FE01E759D6
:10415000FF4F608171818281938120E03FEF4FE7C3
:1041600057E40E94190318160CF043C0FE01E359EE
:10417000FF4F608171818281938120E030E040E2D5
:1041800051E40E941F02DC01CB018E0109591F4F2F
:10419000BC01CD010E944900DC01CB01F8019183F3
:1041A00080831FC0FE01EB59FF4F88EC90E09183A4
:1041B0008083FE01EB59FF4F808191810197F1F7D8
:1041C000FE01EB59FF4F91838083DE01A959BF4F58
:1041D000FE01E959FF4F80819181019711969C93CF
:1041E0008E93FE01E959FF4F808191810097D1F6AE
:1041F00027C08E0109591F4FFE01E759FF4F60810B
:104200007181828193810E944900DC01CB01F80118
:1042100091838083DE01AD59BF4FFE01E959FF4F05
:10422000808191818D939C93FE01ED59FF4F808198
:1042300091810197F1F7FE01ED59FF4F9183808342
:104240009091EE0080E0692F0E94960787E790E04A
:104250000E946D078091EE008B3089F49E012754F7
:104260003F4FFE01E854FF4F8081882F90E0A0E08F
:10427000B0E0F90180839183A283B383ABC4FE01D4
:10428000E754FF4F80819181A281B3812AE030E021
:1042900040E050E0BC01CD010E949B279B01AC0196
:1042A000FE01E854FF4F8081882F90E0A0E0B0E04D
:1042B000FE01E754FF4F820F931FA41FB51F808399
:1042C0009183A283B38386C4FE01E854FF4F8081AB
:1042D000853009F004C19091EE0080E0692F0E94C2
:1042E0009607FE01E854FF4F8081805D0E944106E1
:1042F000FE01E15AFF4F80E090E0AAEFB3E4808333
:104300009183A283B3838E01055A1F4FFE01E15AA8
:10431000FF4F608171818281938120E030E04AEF1C
:1043200054E40E941F02DC01CB01F80180839183D9
:10433000A283B383FE01E55AFF4F608171818281C0
:10434000938120E030E040E85FE30E947903882316
:1043500044F4FE01E75AFF4F81E090E091838083AF
:1043600064C0FE01E55AFF4F6081718182819381B3
:1043700020E03FEF4FE757E40E94190318160CF0B6
:1043800043C0FE01E15AFF4F6081718182819381B8
:1043900020E030E040E251E40E941F02DC01CB014A
:1043A0008E01075A1F4FBC01CD010E944900DC015C
:1043B000CB01F801918380831FC0FE01E95AFF4FB2
:1043C00088EC90E091838083FE01E95AFF4F808161
:1043D00091810197F1F7FE01E95AFF4F91838083A4
:1043E000DE01A75ABF4FFE01E75AFF4F808191813E
:1043F000019711969C938E93FE01E75AFF4F80819F
:1044000091810097D1F627C08E01075A1F4FFE01F8
:10441000E55AFF4F60817181828193810E9449003A
:10442000DC01CB01F80191838083DE01AB5ABF4FE1
:10443000FE01E75AFF4F808191818D939C93FE018D
:10444000EB5AFF4F808191810197F1F7FE01EB5A02
:10445000FF4F918380839091EE0080E0692F0E944E
:10446000960787E790E00E946D078091EE008B3001
:1044700089F49E0127543F4FFE01E854FF4F80818D
:10448000882F90E0A0E0B0E0F90180839183A283BF
:10449000B383A0C3FE01E754FF4F80819181A281C5
:1044A000B3812AE030E040E050E0BC01CD010E9441
:1044B0009B279B01AC01FE01E854FF4F8081882FB0
:1044C00090E0A0E0B0E0FE01E754FF4F820F931FA1
:1044D000A41FB51F80839183A283B3837BC3FE0196
:1044E000E854FF4F8081863009F004C19091EE00BE
:1044F00080E0692F0E949607FE01E854FF4F8081FB
:10450000805D0E944106FE01EF5AFF4F80E090E07F
:10451000AAEFB3E480839183A283B3838E01035B0C
:104520001F4FFE01EF5AFF4F60817181828193819D
:1045300020E030E04AEF54E40E941F02DC01CB018E
:10454000F80180839183A283B383FE01E35BFF4F75
:10455000608171818281938120E030E040E85FE3F7
:104560000E947903882344F4FE01E55BFF4F81E05C
:1045700090E09183808364C0FE01E35BFF4F608124
:1045800071818281938120E03FEF4FE757E40E94E1
:10459000190318160CF043C0FE01EF5AFF4F60815B
:1045A00071818281938120E030E040E251E40E94F9
:1045B0001F02DC01CB018E01055B1F4FBC01CD0149
:1045C0000E944900DC01CB01F801918380831FC068
:1045D000FE01E75BFF4F88EC90E091838083FE0152
:1045E000E75BFF4F808191810197F1F7FE01E75B67
:1045F000FF4F91838083DE01A55BBF4FFE01E55B2A
:10460000FF4F80819181019711969C938E93FE01BB
:10461000E55BFF4F808191810097D1F627C08E0125
:10462000055B1F4FFE01E35BFF4F6081718182815B
:1046300093810E944900DC01CB01F80191838083C2
:10464000DE01A95BBF4FFE01E55BFF4F80819181D9
:104650008D939C93FE01E95BFF4F808191810197CF
:10466000F1F7FE01E95BFF4F918380839091EE00AB
:1046700080E0692F0E94960787E790E00E946D070F
:104680008091EE008B3089F49E0127543F4FFE014C
:10469000E854FF4F8081882F90E0A0E0B0E0F9015E
:1046A00080839183A283B38395C2FE01E754FF4FB9
:1046B00080819181A281B3812AE030E040E050E026
:1046C000BC01CD010E949B279B01AC01FE01E85477
:1046D000FF4F8081882F90E0A0E0B0E0FE01E7541A
:1046E000FF4F820F931FA41FB51F80839183A28366
:1046F000B38370C2FE01E854FF4F8081873009F018
:10470000D6C09091EE0080E0692F0E949607FE01CE
:10471000E854FF4F8081805D0E944106FE01ED5B01
:10472000FF4F80E090E0AAEFB3E480839183A283FF
:10473000B3838E01015C1F4FFE01ED5BFF4F608173
:1047400071818281938120E030E04AEF54E40E943D
:104750001F02DC01CB01F80180839183A283B38324
:10476000FE01FF96608171818281938120E030E0BB
:1047700040E85FE30E94790388232CF481E090E015
:104780009EAF8DAF46C0FE01FF9660817181828130
:10479000938120E03FEF4FE757E40E94190318167A
:1047A00064F5FE01ED5BFF4F608171818281938131
:1047B00020E030E040E251E40E941F02DC01CB0126
:1047C000BC01CD010E944900DC01CB019EAF8DAF41
:1047D0000FC088EC90E09CAF8BAF8BAD9CAD019788
:1047E000F1F79CAF8BAF8DAD9EAD01979EAF8DAFB6
:1047F0008DAD9EAD009769F716C0FE01FF966081F2
:104800007181828193810E944900DC01CB019EAFBE
:104810008DAF8DAD9EAD9AAF89AF89AD9AAD019741
:10482000F1F79AAF89AF9091EE0080E0692F0E9476
:10483000960787E790E00E946D078091EE008B302D
:1048400089F49E0127543F4FFE01E854FF4F8081B9
:10485000882F90E0A0E0B0E0F90180839183A283EB
:10486000B383B8C1FE01E754FF4F80819181A281DB
:10487000B3812AE030E040E050E0BC01CD010E946D
:104880009B279B01AC01FE01E854FF4F8081882FDC
:1048900090E0A0E0B0E0FE01E754FF4F820F931FCD
:1048A000A41FB51F80839183A283B38393C1FE01AC
:1048B000E854FF4F8081883009F0C3C09091EE002A
:1048C00080E0692F0E949607FE01E854FF4F808127
:1048D000805D0E94410680E090E0AAEFB3E48DABDA
:1048E0009EABAFABB8AF6DA97EA98FA998AD20E004
:1048F00030E04AEF54E40E941F02DC01CB0189AB97
:104900009AABABABBCAB69A97AA98BA99CA920E0F7
:1049100030E040E85FE30E94790388232CF481E0D3
:1049200090E098AB8FA73FC069A97AA98BA99CA9F1
:1049300020E03FEF4FE757E40E94190318164CF5AB
:104940006DA97EA98FA998AD20E030E040E251E446
:104950000E941F02DC01CB01BC01CD010E94490075
:10496000DC01CB0198AB8FA70FC088EC90E09EA72D
:104970008DA78DA59EA50197F1F79EA78DA78FA561
:1049800098A9019798AB8FA78FA598A9009769F769
:1049900014C069A97AA98BA99CA90E944900DC01CD
:1049A000CB0198AB8FA78FA598A99CA78BA78BA5A8
:1049B0009CA50197F1F79CA78BA79091EE0080E052
:1049C000692F0E94960787E790E00E946D0780910B
:1049D000EE008B3089F49E0127543F4FFE01E854CE
:1049E000FF4F8081882F90E0A0E0B0E0F901808344
:1049F0009183A283B383EEC0FE01E754FF4F808111
:104A00009181A281B3812AE030E040E050E0BC0116
:104A1000CD010E949B279B01AC01FE01E854FF4F92
:104A20008081882F90E0A0E0B0E0FE01E754FF4FC6
:104A3000820F931FA41FB51F80839183A283B3832A
:104A4000C9C0FE01E854FF4F8081893009F0C2C01F
:104A50009091EE0080E0692F0E949607FE01E854D5
:104A6000FF4F8081805D0E94410680E090E0AAEFC8
:104A7000B3E48FA398A7A9A7BAA76FA178A589A522
:104A80009AA520E030E04AEF54E40E941F02DC01C6
:104A9000CB018BA39CA3ADA3BEA36BA17CA18DA1D5
:104AA0009EA120E030E040E85FE30E947903882384
:104AB0002CF481E090E09AA389A33FC06BA17CA174
:104AC0008DA19EA120E03FEF4FE757E40E9419031C
:104AD00018164CF56FA178A589A59AA520E030E0BD
:104AE00040E251E40E941F02DC01CB01BC01CD0178
:104AF0000E944900DC01CB019AA389A30FC088EC76
:104B000090E098A38F8F8F8D98A10197F1F798A3CC
:104B10008F8F89A19AA101979AA389A389A19AA1AC
:104B2000009769F714C06BA17CA18DA19EA10E9482
:104B30004900DC01CB019AA389A389A19AA19E8F88
:104B40008D8F8D8D9E8D0197F1F79E8F8D8F90911A
:104B5000EE0080E0692F0E94960787E790E00E94B0
:104B60006D078091EE008B3089F49E0127543F4FF2
:104B7000FE01E854FF4F8081882F90E0A0E0B0E074
:104B8000F90180839183A283B38324C0FE01E7549B
:104B9000FF4F80819181A281B3812AE030E040E023
:104BA00050E0BC01CD010E949B279B01AC01FE019E
:104BB000E854FF4F8081882F90E0A0E0B0E0FE0134
:104BC000E754FF4F820F931FA41FB51F808391836B
:104BD000A283B3838091EE008F5F8093EE0080917B
:104BE000EE008F3010F40C944D1B2091FA003091A0
:104BF000FB004091FC005091FD00FE01E754FF4F87
:104C000080819181A281B38182179307A407B507A0
:104C1000D9F481E00E94A30585E890E00E946D0729
:104C200081E060E00E94960784E990E00E946D07B1
:104C3000C454DF4F0FB6F894DEBF0FBECDBFCF9187
:104C4000DF911F910F9108958091ED00813009F05F
:104C5000B0C0FE01E954FF4F82E0808381E00E94F2
:104C6000A30580EA90E00E946D0780E06DE00E945D
:104C700096078AEA90E00E946D0780E06AE00E9451
:104C80009607FE01E954FF4F8081882F90E00E9433
:104C9000F60780E090E0AAE7B4E4898F9A8FAB8FA3
:104CA000BC8F698D7A8D8B8D9C8D20E030E04AEF32
:104CB00054E40E941F02DC01CB018D8B9E8BAF8BD5
:104CC000B88F6D897E898F89988D20E030E040E82B
:104CD0005FE30E94790388232CF481E090E09C8BB1
:104CE0008B8B3FC06D897E898F89988D20E03FEF47
:104CF0004FE757E40E94190318164CF5698D7A8D19
:104D00008B8D9C8D20E030E040E251E40E941F0238
:104D1000DC01CB01BC01CD010E944900DC01CB01CB
:104D20009C8B8B8B0FC088EC90E09A8B898B898948
:104D30009A890197F1F79A8B898B8B899C890197C6
:104D40009C8B8B8B8B899C89009769F714C06D892C
:104D50007E898F89988D0E944900DC01CB019C8B54
:104D60008B8B8B899C89988B8F878F8598890197EE
:104D7000F1F7988B8F87DE01A954BF4FFE01E954EC
:104D8000FF4F808181508C93FE01E954FF4F808159
:104D9000882309F072CF83E08093ED008BE080934D
:104DA000EE0081E00E94A30589E790E00E946D0774
:104DB00016CF8091ED0081508093ED008BE08093C1
:104DC000EE0081E00E94A3058EEA90E00E946D074C
:104DD00081E060E00E9496078DEB90E00E946D07F5
:104DE00081E06BE00E9496078091ED00882F90E0B3
:104DF0000E94F60780E090E0AAEFB3E48B879C87DF
:104E0000AD87BE876B857C858D859E8520E030E0F3
:104E10004AEF54E40E941F02DC01CB018F83988784
:104E2000A987BA876F81788589859A8520E030E0E7
:104E300040E85FE30E94790388232CF481E090E04E
:104E40009E838D833FC06F81788589859A8520E018
:104E50003FEF4FE757E40E94190318164CF56B8596
:104E60007C858D859E8520E030E040E251E40E9403
:104E70001F02DC01CB01BC01CD010E944900DC0115
:104E8000CB019E838D830FC088EC90E09C838B8345
:104E90008B819C810197F1F79C838B838D819E810F
:104EA00001979E838D838D819E81009769F714C041
:104EB0006F81788589859A850E944900DC01CB0144
:104EC0009E838D838D819E819A83898389819A8136
:104ED0000197F1F79A83898381E00E94A30589E70E
:104EE00090E00E946D077BCEDF93CF93CDB7DEB706
:104EF00081E08093F900CF91DF910895DF93CF9304
:104F00000F92CDB7DEB719820E94AF0F8981882337
:104F100061F40E94E50F89818F5F89838981882FE1
:104F200090E066E570E00E945C0F0E94371B0F90D6
:104F3000CF91DF910895629FD001739FF001829F0E
:104F4000E00DF11D649FE00DF11D929FF00D839F18
:104F5000F00D749FF00D659FF00D9927729FB00DB5
:104F6000E11DF91F639FB00DE11DF91FBD01CF01C8
:104F700011240895AA1BBB1B51E107C0AA1FBB1F28
:104F8000A617B70710F0A61BB70B881F991F5A95D5
:104F9000A9F780959095BC01CD0108952F923F927D
:104FA0004F925F926F927F928F929F92AF92BF9239
:104FB000CF92DF92EF92FF920F931F93CF93DF93E5
:104FC000CDB7DEB7CA1BDB0B0FB6F894DEBF0FBE42
:104FD000CDBF09942A88398848885F846E847D848F
:104FE0008C849B84AA84B984C884DF80EE80FD8091
:104FF0000C811B81AA81B981CE0FD11D0FB6F89407
:0E500000DEBF0FBECDBFED010895F894FFCFC7
:10500E0053657420506173733A0052657365742052
:10501E0053797374656D002A00456E746572205065
:10502E006173733A005269676874205061737377C5
:10503E006F72640053616665204F70656E65640023
:10504E0052656D61696E696E6700536563005772D4
:10505E006F6E672050617373776F7264005472695C
:10506E006573204C6566743A000000000000000075
:10507E0000030003000405060700010203070809E8
:10508E002F0405062A0102032D6F003D2B030B0092
:00000001FF
